:020000040800F2
:10400000C8230020D5400008FB400008FD40000800
:1040100000000000000000000000000000000000A0
:10402000000000000000000000000000FF40000849
:1040300000000000000000000141000803410008EA
:104040000541000805410008054100080541000838
:1040500005410008054100080541000845560008D3
:104060000541000805410008054100080541000818
:104070000541000805410008054100080541000808
:10408000054100080541000800000000A99700084C
:1040900005410008054100080541000805410008E8
:1040A00005410008054100080541000805410008D8
:1040B000FD9D0008054100080541000800000000C2
:1040C0000348854600F0B0F80048004759B400089E
:1040D000C82300200C4880F308880C480168090EAA
:1040E0000B4A914205D10B480B4901600B480C4922
:1040F00001600C4880470C480047FEE7FEE7FEE7FA
:10410000FEE7FEE7FEE70000C823002004000000F1
:104110001F000000181002400100000000000140D4
:104120000000000001970008C140000830B50B46B0
:10413000014600202022012409E00D46D5409D4281
:1041400005D31D469540491B254695404019154607
:10415000521E002DF1DC30BD70B50024254600282C
:1041600001DA01244042002901DA01254942FFF722
:10417000DDFFAC4200D04042002C00D0494270BD6F
:1041800010B5431A934209D28318881803E0401EE1
:1041900001785B1E1970521EF9D210BD03460B4305
:1041A0009B0703D009E008C9121F08C0042AFAD2ED
:1041B00003E00B780370401C491C521EF9D210BD5D
:1041C000D2B201E00270401C491EFBD270470022AF
:1041D000F6E710B513460A4604461946FFF7F0FF06
:1041E000204610BD30B505462A460B4610781C788F
:1041F000521C5B1C002801D0A042F7D0002C03D039
:10420000002802D06D1CEFE7284630BD30B50446CB
:104210000020034600E05B1C934203D2E05CCD5CCF
:10422000401BF8D030BD0000064C0125064E05E0CD
:10423000E36807CC2B430C3C98471034B442F7D3C7
:10424000FFF742FFA4DA0008C4DA000870B505469B
:104250000C461748C07D002829D11548008A401C0B
:1042600013498881FF201730015DAF200140FF20F6
:10427000173001550E48018A491C2046FF30153081
:10428000455429120A48028A2046FF3015308154CD
:1042900007488089421C2146FF31153120460A30EB
:1042A000FFF76EFF0248017B204605F02FFE70BD30
:1042B00054160020F0B587B0044600200590009009
:1042C00020886188884202D1002007B0F0BD208894
:1042D00001218902884201DB00202080208806908D
:1042E000072000022018807D030006F089FE0504E7
:1042F0003182D0EAFA0005F0D3FE12E020460C30FD
:104300000699405C7F2802D1069820800DE006982F
:10431000401C80B2012189020690884201D1002010
:104320000690618806988142E8D100BF61880698AE
:10433000814204D1608820806088A08021E1012032
:10434000072109026118887500208F49088000BF85
:104350002088401C85B201208002854201DB281A9A
:1043600085B22088A84207DA6088218888420BDD60
:104370006088A84208DC04E160882188884202DC69
:104380006088A84200DCFCE020460C30405D8021C3
:10439000084000280AD020460C30405D88436081E8
:1043A0000220072109026118887521E020460C309F
:1043B000475D032F13DD7F2F11DA2088C019C01C41
:1043C00086B201208002864201DB301A86B2678104
:1043D000A68003200721090261188875D1E0208892
:1043E000401C208000200721090261188875C8E060
:1043F00000BF2088801C80B20490012189020498AB
:10440000884203DB0498401A80B204902188049803
:10441000814208DA6088218888420DDD618804982D
:10442000814209DCADE060882188884203DC618834
:104430000498814200DCA4E0628920460C30049993
:10444000405CC001101887B27F2F15DD0120C0022B
:10445000874211DA2088C019C01C86B20120800270
:10446000864201DB301A86B2A680678103200721CD
:1044700009026118887509E02088401C208000200E
:10448000072109026118887560817AE079E0A688C1
:104490002088B04207DA6088218888420BDD608876
:1044A000B04208DA6DE060882188884202DC6088CA
:1044B000B04200DA65E0042007210902611888751E
:1044C00000BF05F0EDFD314805906089401C80B2C9
:1044D00001906089C01C80B2029025880020039062
:1044E0001FE048E020460C30415D2948221803981F
:1044F0001154681C80B2054601218902884200DB04
:10450000002501990398884207DA21482218039868
:10451000115C059800F092F905900398401C80B258
:104520000390029903988842DCDB1948211801980E
:10453000095C0598C0B281420ED115482118019836
:10454000401C095CFF2212020598104000128142B3
:1045500002D10120009008E02088401C2080012129
:1045600049020B482018FFF732FE002007210902FC
:104570006118887505E00020072109026118887517
:1045800000BF00BF0098A0E606080020FFFF000063
:1045900016050000F8B504460E4617463B48C07D98
:1045A000002872D13948008A801985B2802D26DA18
:1045B0003648007E01280ED13448028A2146FF3158
:1045C000163120460A30FFF7DBFD3048008A401ED6
:1045D0002E49088208E02D48028A2146FF31153114
:1045E00020460A30FFF7CCFD2848008A8019401E7B
:1045F00085B2E572207B4021884320732DE023485B
:10460000007E012809D12148028A2146FF31153157
:1046100020460A30FFF7B4FD0DE01C48028A21460F
:10462000FF31153120460B30FFF7AAFD1748008AED
:10463000401C164908821548008A8019401E85B220
:104640006906490EE172E07A8030E0726804010E7A
:104650002173607B4021884360737F20A0720B49E7
:104660000A8A21460A31501832463946FFF788FD3A
:10467000681C85B2A5800220607000201721890186
:1046800061180871204605F061FCF8BD5416002041
:10469000F8B504460E4617463B48C07D002872D147
:1046A0003948008A801985B2802D26DA3648007E86
:1046B00001280ED13448028A2146FF3116312046A6
:1046C0000A30FFF75DFD3048008A401E2E490882FF
:1046D00008E02D48028A2146FF31153120460A3074
:1046E000FFF74EFD2848008A8019401E85B2E5720A
:1046F000207B4021884320732DE02348007E012841
:1047000009D12148028A2146FF31153120460A305D
:10471000FFF736FD0DE01C48028A2146FF311531B6
:1047200020460B30FFF72CFD1748008A401C164925
:1047300008821548008A8019401E85B26906490E14
:10474000E172E07A8030E0726804010E2173607BD0
:104750004021884360737F20A0720B490A8A21465A
:104760000A31501832463946FFF70AFD681C85B2F7
:10477000A58002206070002017218901611808714E
:10478000204605F0E3FBF8BD5416002010B50446A2
:104790000E48C07D002817D1BE2121730C48017836
:1047A00061730A48C189491E2046FF301530415CBB
:1047B000A1730648C1892046FF301530415CE17382
:1047C0000521204605F0A2FB10BD00005416002074
:1047D000B001002070B504460E461248028A711CD2
:1047E00020460A30FFF7CCFC0E48008A401E0D49D7
:1047F00008820846008A401E85B2E572207B40216F
:10480000884320737F20A072681C85B2A580022097
:10481000607000201721890161180871204605F099
:1048200095FB70BD54160020F023034019110207B8
:10483000120F0A234B439B18D8B2704730B5C4B24D
:10484000FF252D0205402B12002025464D402A460B
:10485000054DAD5C5D402C46044DAB5C05461D43EB
:104860002D022D19A8B230BD7CB400087CB500081B
:1048700070B50F4C258A6D1C0C46FF341534645DF1
:10488000E443E2B204782240094C258A0C46FF3406
:104890001534655D064C268A761C0C46FF341534AB
:1048A000A45D25402B4614461C43047070BD0000D7
:1048B0005416002010B502460B460020002103E0EC
:1048C000545C60404C1CA1B29942F9DB10BD000061
:1048D00010B504462046FFF7EDFC00282AD0164804
:1048E000844203D100201549087005E01448844231
:1048F00002D10120114908706089C21C1148211899
:104900001148FFF73DFC114800F0F0F900280DD0E8
:104910000F48C078002802D001F0AEFF01E001F09E
:104920009BFF0A4800F0BAFB01F062FE01F0F4FEC2
:10493000A088208010BD0000120800201D0100206A
:104940002E0F002016050000500300203C0200201E
:10495000F00100201FB50446194A07CA01AB07C37E
:104960000121480402F0E8F90121480402F0F4F9B9
:10497000012202210920C00601F082FB012203214D
:104980000920C00601F07CFB1C2168460170022151
:1049900041700121817001F0FFFE0020094908608B
:1049A00088600846006808490843064908600846C8
:1049B00080688860600001A9085A024988811FBD8B
:1049C000A8B60008004400400C14000010B50446CE
:1049D000032C02D102F01CFA0AE0012C03D10120C1
:1049E00002F016FA04E0052C02D1052002F010FABC
:1049F00010BD00001FB50446184A07CA01AB07C323
:104A00000121880402F098F90121880402F0A4F938
:104A100004220A21124801F033FB04220B21104822
:104A200001F02EFB1D216846017003214170012118
:104A3000817001F0B1FE00200A49086088600846D4
:104A400000680C21084307490860084680688860B0
:104A5000600001A9085A034988811FBD9CB600085F
:104A6000000400480048004010B50446032C02D161
:104A700002F0DAFA10E0042C03D1042002F0D4FA98
:104A80000AE0012C03D1012002F0CEFA04E0052C4B
:104A900002D1052002F0C8FA10BD10B502F07CF971
:104AA00002F0BAFA01F054FE10BD000030B59FB01C
:104AB0000446FF227C216846FFF782FB314820181C
:104AC00081790FA8023041702E482018C07908A9BA
:104AD00088776946C88F01F003FB08A9C8760025CE
:104AE00008E02846083027496118095C05A84155A7
:104AF000681CC5B2052DF4DB002509E028460D3001
:104B000020496118095C06A801304155681CC5B2EE
:104B1000202DF3DB1B4820184078312805DD19488B
:104B200020182030807C10A9087016482018407882
:104B3000632816DD6846C08F1349884209D068464D
:104B4000C08F491C884204D06846C08F0F498842F4
:104B500007D132220B482118333110A80130FFF75A
:104B60000FFB684603F0DEFA08A8C07E082806D1CD
:104B70000748407A40084000401C054948721FB071
:104B800030BD0000160500000140000005C800000F
:104B90000608002010B505490548FFF718FB034932
:104BA0000448FFF714FB01F07DFF10BD1C07000057
:104BB000120800202E0F002010B50420FFF71AFF66
:104BC0000320FFF751FF0420FFF7C4FE0320FFF787
:104BD000FDFE10BD10B58B8CDAB2448803460C3351
:104BE0001A5543885B1C43800023038143880124BA
:104BF000A402A34201D10023438010BD70B5044636
:104C00000D461C482018FF3001300079022830D1B1
:104C1000400220188089174961184988884212DAB1
:104C2000012080022018818912482018001D405C54
:104C300028850120800220188089401C01218902DA
:104C40006118888115E0002001218902611888819E
:104C50000849611848800848844203D1552002F071
:104C6000D7F800E000BF002102482018FF300130D3
:104C7000017170BD0C0400001208002010B50A4834
:104C800001F014FE002803D0074801F0DDFA09E026
:104C90000648807E012805D1054805F015F800205A
:104CA0000249887610BD0000AC180020AC1F00201F
:104CB0001208002070B5FF25FD35002408E005F03E
:104CC000EFF92103074A881800F0D8FD601C84B270
:104CD000AC42F4DB00200449488088800846808884
:104CE000488270BD002080009616002070B590B0FC
:104CF000044600262021E548FFF769FA204601F026
:104D00004FF9E24908760846007E002804D0FF20CB
:104D10001830005D087704E0FF201730005DDB49A4
:104D20000877DA48007FEF210840E42874D00ADCD5
:104D3000C438030006F064F90CDFFE5C1FFDFDFDC6
:104D4000FDE0FC5D20FDE538030006F059F90BF5A8
:104D50001E07F2F2F2F284F41F08F20000BF0120F5
:104D6000CA49C8750846007E001DC881204600F06B
:104D700005FA012650E100BFC448007E401DC3492A
:104D8000C8810120C875012646E100BFBF48007EEA
:104D9000401DBE49C8810846C189891E2046FF3092
:104DA0001530405CFF2807D10120B849C87520465E
:104DB00000F0E4F901261AE0B548C078002812D0C6
:104DC000B248C189891E2046FF301530415CB04889
:104DD00040380078814204D1204600F0CFF9012606
:104DE00005E0002603E0204600F0C8F9012613E1A3
:104DF00000BFA648007EC01DA449C8810846017EA8
:104E0000091D2046FF301530405CFF2805D10120E8
:104E10009E49C875012617E01CE09C48017E091DCB
:104E20002046FF301530415C994840380078814277
:104E300001D1012608E09548C1892046FF30153090
:104E4000405C3F2800D10126002E02D0204600F011
:104E500095F9E1E000BF05228D4933396846FFF737
:104E60008FF905226946684601F095FB8748017E67
:104E7000C91C2046FF3015300B186A46052100205A
:104E800006F0B3FA0546AB2D09D18048007E093003
:104E90007E49C881204600F071F90126BCE0AA2DA8
:104EA0000BD101207949C8750846007E0930C881B8
:104EB000204600F063F90126AEE07D2069460870C7
:104EC0007248017EC91C2046FF3015300B186A4617
:104ED0000521002006F089FA0546AA2D0AD10120F5
:104EE0006A49C8750846007E0930C881204600F02E
:104EF00045F9012690E000BF05226549333968462F
:104F0000FFF73EF905226946684601F044FB5F4819
:104F1000017E091D2046FF3015300B186A46052119
:104F2000002006F062FA0546AB2D06D101260AE004
:104F300048E06FE045E012E010E0AA2D03D1012621
:104F400001205249C8755148007E0F304F49C88131
:104F5000002E02D0204600F011F95DE000BF0C22C7
:104F60004B493F396846FFF70BF90C226946684602
:104F700001F011FB4548017EC91C2046FF30153069
:104F80000B186A460C21002006F02FFA0546AB2DBF
:104F900009D13E48007E10303C49C881204600F0CF
:104FA000EDF801260CE0AA2D0AD101203749C87579
:104FB0000846007E1030C881204600F0DFF8012648
:104FC0002AE000BF0C2232493F396846FFF7D8F883
:104FD0000C226946684601F0DEFA2C48017E091D64
:104FE0002046FF3015300B186A460C21002006F0D1
:104FF000FCF90546AB2D01D1012605E0AA2D03D110
:10500000012601202149C8752048007E1D301F4916
:10501000C88101E0002600BF00BF1C48C0890028ED
:1050200031D01A48C189491E2046FF301530405CF6
:1050300018490978884208D117488079012802D197
:1050400001F0C6FA1FE000261DE013488079012810
:1050500010D10E48C189491E2046FF301530415CF1
:105060000C480078401C814202D101F0B7FA01E0FF
:1050700001F0AEFA0548C189491E2046FF301530BF
:10508000405C04490870304610B070BD54160020D2
:10509000F0010020130100204A16002010B504463C
:1050A0000948407E01280BD10748C07D012807D060
:1050B0002246FF32153200212046FFF76BFA02E04C
:1050C000204600F003F810BD5416002010B5044629
:1050D0002848807D602835D00EDC212825D006DCCC
:1050E000002816D0012818D020283CD119E04028EB
:1050F0001FD0412837D120E0812827D004DC612847
:1051000025D080282FD11CE0A02824D0A1282AD186
:1051100025E0204605F0C2FC2AE0204602F074FF9C
:1051200026E0204604F0C0FF22E0204602F0ECFA20
:105130001EE0204605F03AF81AE0204602F09CFBFB
:1051400016E000BF204605F0ABF911E000BF204695
:1051500002F0BCFC0CE0204605F096FC08E020467E
:1051600002F072FE04E021460348FFF76FF800BF2B
:1051700000BF10BD5416002001C5000070B50446E4
:105180001848C1892046FF301530405CC02803DA3A
:10519000204600F029F817E01248C189491C204632
:1051A000FF301530455CE0210D40602D03DA2046CC
:1051B00000F046F808E0A02D03DA204600F040F9A0
:1051C00002E0204600F082F80648007F0007C00F8A
:1051D000002805D00348807D0121084301498875D6
:1051E00070BD0000541600201449CA890146FF31E1
:1051F0001531895CC02211404910104A9175114641
:10520000897D20290AD11146CA890146FF3115310D
:10521000895CC906C90E094A116009E00749CA89B3
:105220000146FF311531895C8906890E034A1160F8
:105230000249C989491C014A11827047541600204D
:105240002149CA89521C0146FF311531895CE0228F
:1052500011401D4A91751146897D202911D11146B1
:10526000CA89521C0146FF311531895CC906C90E35
:10527000154A1160114609684901116000219180A9
:1052800010E01149CA89521C0146FF311531895C71
:105290008906890E0C4A116011460968890111605E
:1052A0000121918008490A68CB890146FF311531F7
:1052B000C95C8906890E0A4303490A60C989891CA9
:1052C000014A1182704700005416002070B505464F
:1052D0005A48C189491C2846FF301530405CE021FE
:1052E0000840564988750846C1892846FF30153060
:1052F000405C8006800E5149086001240846C08940
:1053000001192846FF301530405C0607360FB601FC
:105310004A4800688019494908600846C08901194F
:105320002846FF301530405C10210840002838D056
:1053300002244248C08901192846FF301530405CDC
:105340004606760EB6023D48006880193B49086063
:105350001BE0601CC4B23948C08901192846FF30DF
:105360001530405C4606760EA01EC100081A0A30B1
:10537000314681400E463148006880192F49086047
:10538000042C02DDFF2088750AE02C48C089011931
:105390002846FF301530405C802108400028D8D1D5
:1053A00000BF601CC4B2254AD28913192A46FF32B5
:1053B0001532D15C214AD28913195B1C2A46FF326F
:1053C0001532D05C04F01AFE1C49C880601CC4B2BF
:1053D000601CC4B20A46D28913192A46FF3215321C
:1053E000D15C164AD28913195B1C2A46FF3215324A
:1053F000D05C04F003FE11490881601CC4B2601C3B
:10540000C4B20A46D28913192A46FF321532D15C3A
:105410000A4AD28913195B1C2A46FF321532D05C26
:1054200004F0ECFD05494881601CC4B2601CC4B2A4
:105430000846C0890019088270BD0000541600207B
:1054400030B50021674BDC89641C0346FF331533FC
:105450001B5DE0242340634CA37523469B7D602B9A
:1054600027D12346DC89641C0346FF3315331B5DBB
:10547000DB06DB0E5B4C236023461B689B0123602D
:1054800023461C68DD890346FF3315335B5D9B06AD
:105490009B0E1C43534B1C60DC89A41C0346FF334A
:1054A00015331B5D4F4CA3802346DB89DB1C238215
:1054B00096E04C4B9B7D802BFAD14A4BDC8903460E
:1054C000FF3315331B5D9B069B0E464C2360012169
:1054D0002346DB895C180346FF3315331B5D1A072F
:1054E000120F92013F4B1B689B183E4C23602346D2
:1054F000DB895C180346FF3315331B5D1024234002
:10550000002B38D00221374BDB895C180346FF3370
:1055100015331B5D5A06520E9202324B1B689B18C4
:10552000304C23601BE04B1CD9B22E4BDB895C183E
:105530000346FF3315331B5D5A06520E8B1EDC00EB
:10554000E31A0A3314469C402246264B1B689B18DC
:10555000244C2360042902DDFF23A3750AE0214BBC
:10556000DB895C180346FF3315331B5D8024234021
:10557000002BD8D100BF4B1CD9B21A4BDB895C1869
:105580000346FF3315331B5D80242340002B18D0C6
:10559000144BDB895C180346FF3315331B5D114C3C
:1055A000A3804B1CD9B22346DB895C180346FF332A
:1055B00015331A5DD2010B4B9B889B18094CA380B5
:1055C00008E0084BDB895C180346FF3315331B5D8D
:1055D000044CA380034BDB895B185B1C014C2382CA
:1055E00030BD00005416002070B505460C462E2034
:1055F00020703B20405D60703A20405DA070052225
:1056000029461231E01CFEF7BBFD20222946173146
:1056100020460830FEF7B4FD0622294620462830F1
:10562000FEF7AEFD3C20415D2E2001553720415D47
:105630002F2001552146024804F0C0FA70BD000039
:105640001208002010B500F0B7FD0446204601F016
:1056500011FA01F00BF90120C00300F001F810BDB0
:1056600001494861704700000004014000212049C1
:105670008279002A35D00A46126803689A430B469D
:105680001A600A46526803689A430B465A600279C8
:1056900051180A6803681A430A60154A9268036839
:1056A0009A43134B9A601A46D26803689A43104B88
:1056B000DA604279102A0CD11A46926803681A43BC
:1056C0000B4B9A601A46D26803681A43084BDA609B
:1056D0000DE00749427951180A6803681A430A60C5
:1056E00005E0027951180A6803689A430A60704716
:1056F0000004014000201949497AC907C90F00294F
:1057000006D001201549497A8143144A517223E099
:105710001249497A8907C90F002907D002200F4989
:10572000497A022291430D4A517215E00B49497A98
:105730004907C90F002907D003200849497A0422E4
:105740009143064A517207E005490978002903D0C0
:105750000021034A11700420704700000608002051
:10576000AA16002070B5044600250D4800890D4991
:105770008988884211D00B4A9188094A10892246AB
:1057800002F050F90546002D07D10A210448FEF722
:105790001EFD0448808802490881284670BD00002B
:1057A0004A1600209616002070B50E4B9D44064602
:1057B0000C4604F075FC22466946304600F078F944
:1057C00000250AE06846405DFF2804D00020012340
:1057D0001B039D4470BD681C85B2A542F2DB01200D
:1057E000F5E7000000F0FFFFF8B504460D46002085
:1057F0000090022C00DBF8BD60001149085A6100DE
:10580000104A515A4843A84217DDA0000E490958D2
:1058100060000E4A105A68430E180122694630464D
:1058200000F046F968460078AA2806D100200090CA
:1058300001226946304600F01FFB00BFDBE7000095
:1058400024C8000828C8000814C8000820C8000898
:1058500010B50220084908810120074920398861D4
:10586000062002F045FD012003490881022002497B
:105870002039886110BD00002004004870B504463E
:1058800000250AE004F00CFC200B000300F0AEFA47
:10589000012040052418681CC5B2032DF2DB70BD41
:1058A0000448807803490A7801219140084301495E
:1058B000887070471701002010B502F053FD0120D9
:1058C0000149487010BD000017010020F7B5FFB076
:1058D00083B004460E46002081900090022C04DA2A
:1058E00060003649085AB04203DC00207FB006B0A1
:1058F000F0BD002C00D100263146204604F086FB86
:105900000546FF2D0ED00120009060002C49085A5A
:105910007043401961002B4A515A4843A1002A4A5A
:10592000515847180098012846D160002749085A65
:10593000401C82B201A9781C00F038F9012C06D174
:1059400060002249085A801E80B2819003E0600006
:105950001E49085A819001A88199FEF7ABFF6100AA
:105960001A4A515A01AA515C884207D1600017496E
:105970000A5A01A98498FEF703FC1DE06000134950
:10598000085A401C82B201A9781C00F091F801A8C5
:105990008199FEF78FFF61000C4A515A01AA515CB0
:1059A000884207D1600009490A5A01A98498FEF784
:1059B000E7FB01E000200090009897E724C800086A
:1059C00028C8000820C8000814C800081CC800081F
:1059D000F0B5C1B004460E461746FFF739FF022066
:1059E000164908810120154920398861022002F0FA
:1059F0007FFC2102080E02F07BFC2104080E02F05D
:105A000077FCE0B202F074FC002504E0705D02F067
:105A10006FFC681C85B2BD42F8DB012007492039C4
:105A200088610220886100F00BFA00F0A3FA3A4680
:105A300001A9204600F0BAF841B0F0BD20040048AA
:105A4000FFB5FFB082B004460F4625461748844292
:105A500007D22105090D83980818012109038842FE
:105A600002D97FB006B0F0BD00261BE004F018FBA1
:105A700001A92846839A00F099F801A93846839A2B
:105A800000F05FFA002803D1280B000300F0AEF904
:105A900039462846839A00F002FA012040052D1865
:105AA000701CC6B2032EE1DB00BFDAE700108000F5
:105AB000F7B5B2B00F46402122A8FEF788FB40217F
:105AC00012A8FEF784FB402102A8FEF780FB329E5D
:105AD000349D002001904AE004F0E2FA402D04DDFC
:105AE00040200090281A85B201E00095002522A9E7
:105AF0003046009A00F05AF812A9012040053018EB
:105B0000009A00F053F802A9012080053018009A8D
:105B100000F04CF8002422E012A8005D22A9095DE3
:105B2000484012A9085502A8005D095D084002A975
:105B3000085512A8005DC04312A9085522A8005DAF
:105B4000095D084022A9085522A8005D02A9095D47
:105B5000084301998901C9190855601C84B200984D
:105B60008442D9DB40360198401C80B20190002D60
:105B7000B2D135B0F0BD000010B502200A4908814D
:105B80000120094920398861052002F0B1FBFF207E
:105B900002F0AEFB044601200349088102200249BD
:105BA00020398861204610BD20040048F8B504461D
:105BB0000E46174602201349088101201149203959
:105BC0008861032002F094FB2102080E02F090FB92
:105BD0002104080E02F08CFBE0B202F089FB0025E4
:105BE00005E0002002F084FB7055681C85B2BD42C0
:105BF000F7DB01200349088102200249203988612E
:105C0000F8BD000020040048F7B5FFB0FFB084B035
:105C100004460D46022C04DA60006D49085AA84279
:105C200003DC7FB07FB007B0F0BD002C00D10025B1
:105C300068480078002800D0F3E701206549087023
:105C4000AA2180A80170600063490A5AFFA841692F
:105C500080A80130FEF794FA012C19D160005E4A49
:105C6000105A801E81B280A80130FEF723FE610029
:105C7000594A515A491C80AA5054A0005749095802
:105C80006000574A105A68430818FFA988602FE03F
:105C90006000514A115A80A80130FEF70BFE6100E6
:105CA0004D4A515A491C80AA505460004D49085A27
:105CB000684361004A4A515A4843A100474A515833
:105CC0004118FFA8816080AA8168204600F02EFA62
:105CD00006466000434A115A3046FEF73DFA60001E
:105CE0003F4A105A4143FFA880680918FFA8816005
:105CF000002765E0002F0ED03B484078012809DDE1
:105D000039480078002801D1012000E00020364900
:105D1000087000E056E00320FFA9486025E060001D
:105D20002D49085A801C82B2234680A9FFA88068AA
:105D3000FFF786FE60002849085A801C82B2694637
:105D4000FFA88068FFF7B4FE60002349095A8A1C47
:105D500080A96846FEF75AFA002800D109E0FFA89A
:105D60004068401EC1B2FFA84160FFA840680028FB
:105D7000D5D100BFFFA84068002801D1FFF790FDF2
:105D8000012C10D0002E0ED060001649085AB042E7
:105D900009D060000A46105A68438019401E81B23B
:105DA0002046FFF721FD002F08D00F48007800287B
:105DB00001D1012000E000200B490870781CC7B217
:105DC000022F97DB00BF00200249087000BF28E7C0
:105DD00024C800081B0100201CC8000814C80008C3
:105DE00020C8000828C800081701002010B5044684
:105DF00004F056F9FFF72CFD02201049088101201C
:105E00000E4920398861202002F072FA2102080E22
:105E100002F06EFA2104080E02F06AFAE0B202F013
:105E200067FA012005490881022004492039886168
:105E300000F006F800F09EF810BD000020040048B5
:105E400070B5012502200B4908810120094920393C
:105E5000886100BFFFF790FE0446E007C00F0028EE
:105E6000F8D10120034908810220024920398861C4
:105E7000284670BD20040048F8B504460E46174673
:105E8000002509E03A463146204600F008F8012096
:105E900040052418681CC5B2032DF3DBF8BDF7B527
:105EA00082B00746049CFDB22819FF2101318842C7
:105EB00005DC224638460399FFF78AFD3FE0FF20C4
:105EC0000130401B82B238460399FFF781FD60190B
:105ED000FF38013884B2FF200130401B85B2FF2615
:105EE000013610E004F0DCF803984219F01FF9388D
:105EF00011187A191318FF2201321846FFF768FDAE
:105F0000F01DF93086B2A642ECDD2046E117090EFD
:105F1000091809120902611A11D0E017000E0019C0
:105F200000120002201A82B2019403984019F31F54
:105F3000F93BC1187819C0180090FFF749FD05B06A
:105F4000F0BD30B503460C46002109E0605C5D5CA5
:105F500068405D5C2840002800D003E0481C81B206
:105F60009142F3DB00BF914201DB012030BD0020F4
:105F7000FCE7000010B5022008490881012007490C
:105F800020398861042002F0B3F901200349088117
:105F9000022002492039886110BD00002004004819
:105FA00030B50146FF241634645C80252C40002C5B
:105FB00012D00120FF241634625CAA43641C635C87
:105FC0000A4CA382A48AE405240C084DAC822C461A
:105FD000A48AA418AC8208E00020FF241634625C76
:105FE00080251446AC43014DAC8230BD54160020D0
:105FF000F0B50A4600210023002400BF3DE0012542
:106000008D402B4615681D402C469C4234D1157995
:10601000012D02D01579022D16D185684F00032677
:10602000BE40B543856055794E00B540866835431E
:106030008560858801268E40B54385808588967960
:106040008E40B6B23543858005684F000326BE40BA
:10605000B543056015794E00B540066835430560C7
:10606000C5684F000326BE40B543C560D5794E00D4
:10607000B540C6683543C560491C1029BFD3F0BD83
:10608000F0B5002300244D07EE0E1546B5402B4613
:10609000CD10AE0005462035AD594E07F70E0F2640
:1060A000BE40B543CE10B60007462037BD51CD10D7
:1060B000AE003D46AD591D432C46CD10AD003E46C9
:1060C0007451F0BD02460020138A0B40002B01D012
:1060D000012000E000207047018570478161704712
:1060E00030B50246172300F01DF804460B488242E3
:1060F00001D1184630BD00210AE0C800084D285AD9
:10610000904203D1C8004019837803E0481C81B253
:10611000A142F2DB00BF1846ECE70000FFFF0000E1
:10612000F4BC0008FF20593070470000F0B5FFB004
:1061300082B004460D46174600260020809000BF1E
:1061400029E003F0ADFF012280A92846FFF7B0FC4B
:1061500080A80078AA2818D160001449085A401C69
:1061600082B200A90131681CFFF7A2FC60000F4950
:10617000085A401C82B200A90131781CFFF7E1FEE9
:10618000002801D1701C86B20AE060000849085A54
:106190004519701C86B260000649085AB042D0DC2E
:1061A00000BF30467FB002B0F0BD00001CC8000840
:1061B00020C8000828C80008F8B5002701F0B8FB7F
:1061C000044601F0B5FB054601F0B2FB0646AC42C1
:1061D00001D0B44201D1274602E0B54200D12F469A
:1061E0003846F8BD10B504461549002001F0D8F82E
:1061F0001349087800F050F8A0701149487800F071
:106200004BF860700E49887800F046F820700D4910
:10621000002001F095F80B49C87800F03DF8A07116
:106220000849487800F038F860710649887800F02D
:1062300033F820710349087800F02EF8E07010BDA3
:10624000D3000020D700002010B504460DA10F4850
:106250002018FDF7C7FF002805D061890B482018DA
:1062600002F0F0FC0BE00AA108482018FDF7BAFF85
:10627000002804D061890548201802F05FF9A08841
:10628000208010BDBBF0BEAF00000000160500006E
:10629000B9CAD5CF0000000070B504460A212046D7
:1062A000FDF75AFF05460A206843261A280180197F
:1062B000C4B2204670BDF8B50546002464212846C6
:1062C000FDF74AFF0006040C64212846FDF744FF51
:1062D000CEB20A213046FDF73FFF07010A213046C2
:1062E000FDF73AFF7818001984B22046F8BDF7B5DB
:1062F00004460D462878FFF7CFFF20706878FFF737
:10630000DAFF07463805000E60703807060E02985F
:10631000022803D10F200643A6700AE00298032842
:1063200007D1A878FFF7C7FF0746E7703812064382
:10633000A670FEBD0148024908607047CCCC000041
:10634000003000400148024908607047AAAA0000D6
:1063500000300040014948607047000000300040B4
:106360000149886070470000003000400149086022
:10637000704700000030004010B5474A0021084631
:10638000FFF7A4FA00280AD1FF22FF210C3142486E
:10639000FDF716FF0C2140488130FDF718FF03225E
:1063A0003E493D48B230FDF731FF002807D10322B6
:1063B0003B493948B530FDF729FF00280BD00322AF
:1063C00036493548B230FDF7DBFE03223449324806
:1063D000B530FDF7D5FE304880300078002804D075
:1063E0002D4880300078FC2803DD01212A488030C8
:1063F0000170852128488D30017100240CE0264869
:106400008130005DFF2805D10C2123488130FDF744
:10641000DEFE03E0601CC4B20C2CF0DB00BF1E48A3
:10642000A030C07EFF2803D100211B48A030C176D8
:106430001948C030C078012803DD00211648C0305B
:10644000C17001211448BC3001711C38C07E002885
:1064500017D0002413E01048BC30005DF021084044
:10646000902806DC0C48BC30005D0007000F0928AE
:1064700003DD00210848BC300155601CC4B2042C67
:10648000E9DB1D210448A030C176034A00210846FB
:10649000FFF7BAFB10BD00003001002074B4000803
:1064A00077B4000810B50748FFF760FF0220FFF738
:1064B00051FF0548FFF754FFFFF744FFFFF73AFF8E
:1064C00010BD000055550000FF0F00001CB5012154
:1064D000480400F031FC03200002009001216846CE
:1064E0000171032141710021C17169460920C00673
:1064F000FFF77EFD0121880400F01EFC012040030F
:106500000090012168460171032141710021C17190
:1065100069460748FFF76CFD032109020920C00600
:10652000FFF7DCFD012149030148FFF7D7FD1CBD42
:106530000004004810B500220D210920C006FFF715
:106540009FFD00220E210920C006FFF799FDC02201
:106550000349C803FDF714FE032001F0E1FF10BD5D
:106560000040000810B5FFF707FFFEF713FBFEF72A
:1065700023FB10BD10B5FF21E031632003F016FCB2
:10658000FFF7A4FFFFF798F900F056FB00F012FBAD
:10659000FFF788FF10BDF0B589B006460F461446D8
:1065A000002C01D0202C01DD09B0F0BD2246394677
:1065B00001A8FDF7E5FD002506E0601E401B01A9CE
:1065C000085C7055681CC5B2A542F6DB00BFEBE75E
:1065D00000200149887170474A16002000200349B5
:1065E000887108460089401C088170474A160020BF
:1065F0007047000012498979002907D0104989792C
:106600001A2903D00E4989791B2918D107210902BB
:106610004118897D002912DD072109024118897D71
:1066200004290CDA01890A2909DD00210181018888
:10663000491C0180002107221202821891757047BF
:10664000060800200549098BFF22F532914204DD3E
:106650000021024A1183012191767047AC1F00206E
:106660000649C97D012904D10449098B491C034A03
:1066700011830189491C018170470000AC1F002073
:106680007047000010B52048007900283AD000205B
:106690001D490871084640794007400F012804D081
:1066A000022809D0032829D107E01848FFF7CAFFBC
:1066B0001648FFF79FFF22E021E0154800780028E8
:1066C00009D013480078401E11490870012040028B
:1066D0001049088101E000F0B3F80D484078002827
:1066E00009D00B484078401E09494870FF2001300E
:1066F0000849088101E000F0A9F800E000BF00BFF0
:1067000000F05EFA10BD00002001002012080020F9
:10671000E40000202000004810B50A48C078002896
:106720000FD000200849088008460079002808D0CA
:1067300006490D2002F0B0FD00200349087100F069
:1067400065F810BDF00100204A16002004D00000BA
:1067500010B50F480078012810D1002409E003F09B
:106760009FFC21030F2212058818FFF73FFB601CD6
:1067700084B2FF2CF3DD002005490870054800783D
:10678000012804D102F0ACFF00200249087010BDBE
:106790000A0100200B01002000218278002A27D066
:1067A000184A03231B02D21803789B109B00D15870
:1067B00002789207D30EFF229A400B469343194664
:1067C00042789207120E03789B07DB0E9A40114322
:1067D0000C4A03231B02D21803789B109B00D15054
:1067E0000278D306DB0E01229A40064B1A6007E0BE
:1067F0000278D306DB0E01229A40024B80331A60E6
:106800007047000000E100E0704700000848007891
:1068100000280BD107480079002807D106480079E5
:10682000002803D10120400304498861704700001B
:106830000C010020060800204A1600200004004831
:10684000012040020921C90688617047FF200130FC
:106850000921C90688617047704700000120400384
:1068600001490881704700002004004828200149A0
:1068700008707047E40000202820014948707047E4
:10688000E4000020002807D007490968FF220132F0
:106890001143054A116006E003490968FF220132ED
:1068A0009143014A1160704700700040F0B585B017
:1068B00004460020009020886188884202D1002090
:1068C00005B0F0BD208801218902884201DB00204B
:1068D0002080072000022018807D002802D0032895
:1068E00079D131E003F0DCFB25881DE0002D02D1D9
:1068F0005E48039002E0681E80B2039020460C3090
:106900000399405C1C2807D120460C30405D2628A6
:1069100002D1039820800AE0681C80B2054601215C
:106920008902884200D100256088A842DED100BFDC
:106930006088A84202D16088A08094E003200721EB
:106940000902611888758EE003F0AAFB2088801C7C
:1069500085B274E0032D06DC0320401B012189026F
:10696000081A87B201E0E81E87B222460C32D25DD7
:10697000262A5CD1791CCA17920D521892129202E3
:106980008A1A23460C339A5C202A50D1B81CC217AD
:10699000920D121892129202821A9A5C0A2A46D119
:1069A0001A46525D0D2A42D1A5802088C117890D53
:1069B000091889128902411A8EB2A088218888425A
:1069C0000ADDA0882949884206DCA0882188401A6F
:1069D000401C608108E040E0A08801218902401845
:1069E0002188401A401C6081A07A0190002002900A
:1069F00016E020460C30805D002809D020460C307F
:106A0000825D0299481CC0B2029019482018425475
:106A1000701C80B2064601218902884200DB0026F4
:106A2000019902988842E4DB012000900AE0681C8A
:106A300080B2054601218902884200D10025608884
:106A4000A84287D100BF6088A84200D10BE0002097
:106A5000072109026118887505E000200721090255
:106A60006118887500BF00BF009829E7FF03000088
:106A7000160500000A494A880C3188540C394988A7
:106A8000491C074A51800021118111464988012281
:106A90009202914202D10021014A518070470000C8
:106AA000AC18002010B504490448FDF790FB012004
:106AB0000349C87510BD00001C070000AC18002079
:106AC000AC1F002000B585B00121C80400F034F9E6
:106AD0000120C00303900021684601740121C174A4
:106AE00003A91148FFF784FA0121084600F044F990
:106AF0000F21022001F0F4FC0120C00301900021CD
:106B0000684601720C2141720121817201A8FEF7D1
:106B1000ADFD07216846017000214170012181709F
:106B2000FFF73AFE05B000BD000800481CB5012182
:106B3000480400F001F90920000300900021684694
:106B40000171032141710021C171012181716946E7
:106B50000920C006FFF74CFA0121880400F0ECF888
:106B60007F20C0000090002168460171032141711F
:106B7000012181710021C17169460C48FFF738FA83
:106B80000121C80400F0D8F8012040030090002142
:106B900068460171032141710021C1710121817198
:106BA00069460348FFF724FA1CBD000000040048B2
:106BB0000008004810B5FFF7B9FFFFF783FF10BDCD
:106BC00010B51A480088401C1849088063211748EE
:106BD0000088FDF7C1FA002900D010BD63211348D9
:106BE0000088FDF7B9FA030004F00AFA0B1407084D
:106BF000090A0B0C0D11121314000CE00BE00AE053
:106C000009E008E007E00A48FFF7ECFA03E002E0D9
:106C100001E000E000BF00BF044800880549884249
:106C200002DD00200149088000BFD6E7C000002037
:106C3000CC000020E703000000B58FB001218804DC
:106C400000F07AF80121080400F096F80320800390
:106C50000190022168460172032141720021817274
:106C6000C17201A93048FFF7C3F901220E212E4855
:106C7000FFF706FA03220F212B48FFF701FA002144
:106C8000684601864186294929480068FDF74EFA81
:106C9000401E0D9000216846018708A881760CA946
:106CA000244802F009FF7021684681830121C183D5
:106CB000042101840D99491E8A0088180A21FDF7D4
:106CC00035FA80B2099000216846018541858185A9
:106CD000C18507A9174802F00BFE07A9154802F065
:106CE00051FE07A9134802F09BFE0121C902684624
:106CF00081814910C18189100182302141820121A5
:106D0000090381824900C1824900018303A909481E
:106D100002F09EFD0121074802F0AEFD0121054869
:106D200002F0B8FD0FB000BD00040048A0860100CD
:106D3000E800002000400140002905D0054A5269C2
:106D40000243044B5A6104E0024A52698243014BF8
:106D50005A61704700100240002905D0054AD269E7
:106D60000243044BDA6104E0024AD2698243014BD8
:106D7000DA61704700100240002905D0054A926987
:106D80000243044B9A6104E0024A92698243014B38
:106D90009A6170470010024010B51A48808919495D
:106DA0000C314988884223DA1748C0694006C00F71
:106DB000002822D01448006A402108431249086282
:106DC000104881891030405C0F49203108810D48FE
:106DD0008089401C0B4988810846808901218902ED
:106DE000884202DB002107488181FFF745FD04E06E
:106DF0000020044988810C3148800448FDF768FD73
:106E000010BD0000120C00200044004012080020B9
:106E10001CB50446032C01D0042C32D104210920D6
:106E2000C006FFF75BF9042000900221684601715B
:106E300003214171002181710121C171694609203D
:106E4000C006FFF7D5F870480068082108436E496E
:106E5000086008460068042188436B4908600846BA
:106E600040684914084368494860002267496648F9
:106E700003F02BF864480068092108436249086060
:106E8000C0E0012C01D0022C4ED108210920C006FF
:106E9000FFF724F9082000900221684601710321C0
:106EA000417101218171C17169460920C006FFF756
:106EB0009FF804200090012168460171032141716F
:106EC000002181710121C17169460920C006FFF7C7
:106ED0008FF84D480068082188434B4908600846F0
:106EE0000068042108434849086008464068486033
:106EF00000224749444802F0E8FF00224549424841
:106F000002F0E3FF332C05D1002240493E4802F055
:106F1000DCFF04E001223D493B4802F0D6FF01219D
:106F2000394802F09FFF6DE0052C29D1042109208A
:106F3000C006FFF7D3F804200090012168460171D4
:106F400003214171002181710121C171694609202C
:106F5000C006FFF74DF82C480068082188432A49ED
:106F6000086000222A49284802F0AFFF0022294980
:106F7000254802F0AAFF0121234802F073FF41E0F7
:106F800021480068082188431F49086008460068B6
:106F9000042188431C49086000221C491A4802F059
:106FA00094FF00221A49184802F08FFF0022194965
:106FB000154802F08AFF0021134802F053FF042114
:106FC0000920C006FFF78AF80420009001216846D6
:106FD000017103214171002181710121C171694653
:106FE0000920C006FFF704F8082000900221684637
:106FF0000171032141710121C17169460920C00657
:10700000FEF7F6FF1CBD000000440040050105002E
:10701000070107000601060010B50248FDF758FCFD
:1070200010BD00002E0F00201CB50446032C01D01B
:10703000042C4DD1012189029348FFF74FF801201C
:1070400080020090022168460171032141710121F3
:107050008171C17169468C48FEF7CAFF012188041D
:10706000FFF76AFE0120C00200900121684601710D
:107070008171032141710121C17169468248FEF786
:10708000B7FF0121C9028048FFF726F804207E4996
:10709000203108817D480068082108437B49086049
:1070A000084600680421884378490860084640681B
:1070B000491408437549486000227549734802F035
:1070C00004FF724800680921084370490860D9E04C
:1070D000012C01D0022C67D1012189026A48FEF7F8
:1070E000FDFF01208002009001216846017103210B
:1070F000417101218171C17169466348FEF778FFD2
:107100000120C002009002216846017101218171B5
:10711000032141710121C17169465B48FEF768FF97
:1071200001218804FFF708FE042000900121684631
:1071300001718171032141710121C1716946524878
:10714000FEF756FF04215048FEF7C6FF04204E49C3
:1071500088614E480068082188434C490860084609
:1071600000680421084349490860084640684860AF
:1071700000224849454802F0A8FE002246494348FB
:1071800002F0A3FE332C05D1002241493F4802F012
:107190009CFE04E001223E493C4802F096FE01219B
:1071A0003A4802F05FFE6DE0052C29D101218902E9
:1071B0003548FEF793FF01208002009001216846C8
:1071C000017103214171002181710121C171694661
:1071D0002D48FEF70DFF2D480068082188432B49F4
:1071E000086000222B49294802F06FFE00222A493C
:1071F000264802F06AFE0121244802F033FE41E0F5
:107200002248006808218843204908600846006831
:10721000042188431D49086000221D491B4802F0D3
:1072200054FE00221B49194802F04FFE00221A4961
:10723000164802F04AFE0021144802F013FE012114
:1072400089021148FEF74AFF0120800200900121C7
:10725000684601710321417101218171C171694643
:107260000948FEF7C5FE0120C002009000216846D3
:1072700001710321417101218171C1716946024887
:10728000FEF7B6FE1CBD00000004004800480040A8
:10729000050105000701070006010600014600BFC1
:1072A000F020084000110A23584302460807000F47
:1072B0008018C0B270470146002204E0501CC2B2E0
:1072C00008460A38C1B20A29F8DA1007000E084346
:1072D0007047000008B50022009200200021124AE9
:1072E000D26840231A40002A1BD1421E0E4BDA609E
:1072F00000BF0D4AD26840231A401146009A521C22
:1073000000921B02009A9A4201D00029F1D0064A4D
:10731000D26840231A40002A01D0012002E0002058
:1073200000E0012008BD0000002800400348C068BC
:10733000802188430149C860704700000028004050
:1073400070B506460C4600251348406813490840AE
:107350000546FF2000042840000CE0701F200002BA
:107360002840000A6070A806800EA0700720400325
:107370002840400B2070002E0DD1E078FFF78EFFE3
:10738000E0706078FFF78AFF6070A078FFF786FFF3
:10739000A0702078207070BD002800403FFFFF00E3
:1073A00070B506460C460025124800681249084090
:1073B00005463F2000042840000C20707F2000027A
:1073C0002840000A60706806400EA0700120800509
:1073D0002840000CE070002E0BD12078FFF75EFFF4
:1073E00020706078FFF75AFF6070A078FFF756FFB3
:1073F000A07070BD002800407F7F7F0070B50446FC
:107400000120FFF73FFA022000F022F885B2E8B22F
:10741000FEF742FF20702812FEF73EFF6070032047
:1074200000F016F885B2E8B2FEF736FFA070281219
:10743000FEF732FFE070042000F00AF885B2E8B2EF
:10744000FEF72AFF20712812FEF726FF607170BD3B
:1074500008B5014600200090044800908800009A7A
:10746000801800900098006808BD00005028004077
:10747000F8B505460C46002600200090002D08D1E6
:10748000607810210840102803D1607888430A30C2
:107490006070002D00D108E06078FFF7FFFE06461F
:1074A000A078FFF7FBFE064600BF002D0BD0E0786A
:1074B0000004617809020843A17808432178490350
:1074C0000843064610E0E078FFF7F5FE0704607811
:1074D000FFF7F1FE00020743A078FFF7ECFE074339
:1074E0002078400307433E46CA2013494862532090
:1074F0004862FFF7EFFE002801D1009016E00F4828
:1075000030400D494860FFF711FF0B48806820218B
:107510000840002808D100F0B3F8002801D10090FD
:1075200004E00120009001E001200090FF200249CA
:1075300048620098F8BD0000002800403FFFFF00AF
:10754000F8B505460C46002600200090002D0AD113
:107550002F48806840210840002800D002E0002029
:10756000E07000BF0EE02A488068402108400028F3
:1075700004D02078FFF792FE064602E00020E0707B
:1075800000BF00BF002D0BD02078000461780902F5
:107590000843A1780843E17809040843064610E04F
:1075A0002078FFF788FE07046078FFF784FE00026A
:1075B0000743A078FFF77FFE0743E0780004074306
:1075C0003E46CA201249486253204862FFF782FEB5
:1075D000002801D1009016E00E4830400C490860A8
:1075E000FFF7A4FE0A48806820210840002808D13F
:1075F00000F046F8002801D1009004E0012000903E
:1076000001E001200090FF20014948620098F8BD88
:10761000002800407F7F7F00F8B504460D461646DF
:107620001F4600201349C8700698087007984870D4
:10763000089888700020FFF783FF002806D00120FB
:10764000FFF720F90C49002000F050F80B480770B4
:1076500086704570C47001460020FFF709FF0028BE
:1076600006D00120FFF70EF90349002000F03EF894
:10767000F8BD0000D300002050500000D7000020CB
:1076800008B50022009200200021174A92682023AA
:107690001A40002A01D0012025E0CA22124B5A626A
:1076A00053225A621A46D268A0239A430E4BDA60DC
:1076B00000BF0D4AD26820231A401146009A521C7E
:1076C00000929B02009A9A4201D00029F1D0064A0A
:1076D000D26820231A40002A01D0012000E00020B7
:1076E000FF22014B5A6208BD0028004008B5002265
:1076F0000092044A00928200009BD2180092009AE5
:10770000116008BD5028004070B504465648006816
:10771000082844D008DC00280DD001280CD002280D
:107720000BD003287ED109E0092839D00A2838D0A7
:107730001828F7D166E000BF00BF00BF01254A4806
:107740000078014628468840C5B24848007828405D
:1077500000280ED04448C1892046FF301530415CD6
:10776000202001434048C2892046FF301530815413
:107770000DE03D48C1892046FF301530415C202096
:1077800081433948C2892046FF3015308154224652
:10779000FF32153200212046FCF77AFF62E000BF7D
:1077A00000BF012530480078014628468840C5B210
:1077B0002F48C078284000280ED02B48C189204689
:1077C000FF301530415C202001432748C289204604
:1077D000FF30153081540DE02348C1892046FF3029
:1077E0001530415C202081431F48C2892046FF306C
:1077F000153081542246FF32153200212046FCF715
:1078000047FF2FE01A484079002810D01648C18958
:107810002046FF301530415C202001431248C289C8
:10782000204600E019E0FF30153081540DE00E488D
:10783000C1892046FF301530415C202081430A4831
:10784000C2892046FF30153081542246FF3215325E
:1078500000212046FCF71CFF04E021460548FCF708
:10786000F5FC00BF00BF70BD541600200E010020C3
:10787000C200002001C5000038B504460020009079
:107880002448FF2221320168881A914231D006DC57
:1078900001290CD0032909D0BE2933D11CE091283D
:1078A00014D01D49401800282CD11CE000BF1B48F3
:1078B000C1781848028A20460A3081542246FF3295
:1078C000153201212046FCF7E3FE20E0144A012195
:1078D0002046FCF7DDFE1AE0114A3B32012120462A
:1078E000FCF7D6FE13E00F4A01212046FCF7D0FE3C
:1078F0000DE00D48407A00906A4601212046FCF7D1
:10790000C7FE04E021460948FCF7A0FC00BF00BF09
:1079100038BD000054160020EBFDFFFFC200002020
:10792000B00100200D0100208C16002001C50000D0
:1079300038B508213948FEF7C5FBC0018021084051
:10794000044668460078884301462143009110218F
:107950003248FEF7B7FB80014021084004466846E4
:107960000078884301462143009120212B48FEF7EF
:10797000A9FB40012021084004466846007888435E
:1079800001462143009140212448FEF79BFB000162
:107990001021084004466846007888430146214388
:1079A000009180211D48FEF78DFBC0000821084092
:1079B0000446684600788843014621430091FF2130
:1079C00001311648FEF77EFB800004210840044682
:1079D000684600788843014621430091012149020D
:1079E0000E48FEF76FFB400002210840044668463F
:1079F000007888430146214300910121490308484A
:107A0000FEF760FBC407E40F6846007841084900B0
:107A1000214300916846007838BD0000000400480A
:107A200000080048F0B5A1B006460F4614460020F5
:107A300020901F9035461DE002F032FB6946284633
:107A400003F0FCFC002802D00120209014E01E4826
:107A5000854201D1002501E0681C85B21F98401CB9
:107A600080B21F907F21C9011F98884202DB00204D
:107A700021B0F0BDBD42DFD100BF2098002821D049
:107A80002E2020700FA802304078607008A8807FF8
:107A9000A070052205A9E01CFCF772FB202206A9B4
:107AA000013120460830FCF76BFB062200A90231A9
:107AB00020462830FCF764FB10A801782E200155E1
:107AC0000120D5E70020D3E77F3F000030B5A3B009
:107AD00004460125CD48008ACC4989884018CB4905
:107AE000888108460068FF22B332811A904271D023
:107AF00016DCC74A811A904245D00ADC022820D001
:107B000082282BD0BF287CD0FF381138002879D1AB
:107B100028E0172944D023295DD02829F7D1D5E0C2
:107B20007E2970D006DC03296ED006296DD05E292F
:107B3000EDD1E3E09E2969D0AE2968D0BE29E6D117
:107B40003CE1B2488088082801D0002505E0AF4814
:107B5000818802AA2046FCF79BFD4CE1204600F0FC
:107B60005DF948E1A9488088022801D0002509E094
:107B70007F20C0010190A548818801AA2046FCF71A
:107B800087FD00BF37E1A1488088082801D0002583
:107B900005E09E48818802AA2046FCF779FD2AE18B
:107BA0009A4880880C2801D0002512E000209749CF
:107BB000C8750C22974902A8FCF7E2FA0C2202A928
:107BC00002A8FEF7E8FC9148818802AA2046FCF74B
:107BD0005FFD10E137E08D488088052801D0002541
:107BE00018E005228B490C3102A8FCF7C9FA0522DE
:107BF00002A902A8FEF7CFFC8448818802AA204689
:107C000006E008E0F2E091E035E04CE0A6E0BDE0FF
:107C1000FCF73EFDEFE07D488088052801D0002577
:107C200010E005227B493B3102A8FCF7A9FA0522A6
:107C300002A902A8FEF7AFFC7448818802AA204678
:107C4000FCF726FDD7E071488088032801D0002585
:107C500010E003226F49313102A8FCF791FA0322A8
:107C600002A902A8FEF797FC6848818802AA20466C
:107C7000FCF70EFDBFE065488088032801D0002591
:107C800010E003226349343102A8FCF779FA032299
:107C900002A902A8FEF77FFC5C48818802AA204660
:107CA000FCF7F6FCA7E059488088032801D000259E
:107CB0000BE003225749373102A8FCF761FA534819
:107CC000818802AA2046FCF7E3FC94E04F488088B4
:107CD000202811DC20224F49113102A8FCF750FA6C
:107CE000202202A902A8FEF756FC4848818802AA71
:107CF0002046FCF7CDFC00E000257CE0434880886E
:107D0000202811DC20224349813902A8FCF738FAE7
:107D1000202202A902A8FEF73EFC3C48818802AA64
:107D20002046FCF7B5FC00E0002564E03748808879
:107D3000202811DC20223749613902A8FCF720FAFB
:107D4000202202A902A8FEF726FC3048818802AA58
:107D50002046FCF79DFC00E000254CE02B48808885
:107D6000102811DC10222B49413902A8FCF708FA2F
:107D7000102202A902A8FEF70EFC2448818802AA5C
:107D80002046FCF785FC00E0002534E01F48808891
:107D9000102811DC10221F49313902A8FCF7F0F934
:107DA000102202A902A8FEF7F6FB1848818802AA51
:107DB0002046FCF76DFC00E000251CE0134880889D
:107DC000202811DC20221349213902A8FCF7D8F918
:107DD000202202A902A8FEF7DEFB0C48818802AA35
:107DE0002046FCF755FC00E0002504E021460A4847
:107DF000FCF72CFA00BF00BF002D04D12146064835
:107E0000801CFCF723FA23B030BD0000541600207C
:107E100069010000B101002001C5000030B591B03A
:107E20000446402101A8FCF7D2F9064800786038E2
:107E3000C5B201A84219034881882046FCF728FCF6
:107E400011B030BD5416002010B504460948006832
:107E500001218905884208D30648006806498842FE
:107E600003D2204600F00CF803E021460348FCF75B
:107E7000EDF910BD5416002000C05F0001C50000E0
:107E800070B5FFB085B006465D4800784006400EEC
:107E900000287DD15A498881FF21913120A8FCF723
:107EA00096F9002499E07C2101A8FCF790F9544848
:107EB000006801218905401AC5097F20C00185425B
:107EC00009D955214E4882898089401C4C4B9881A4
:107ED00020A8815478E0A9B201AA0120FDF7F6FCA0
:107EE000002868D0AA21464882898089401C444BDA
:107EF000988120A8815408A8C17F1846828980896A
:107F0000401C988120A881541946898920AA881884
:107F1000062201A90231FCF733F939488089801D16
:107F200037498881898920AA8818052206A9FCF783
:107F300027F933488089401D31498881898920AAE1
:107F40008818202207A90131FCF71AF92C488089EA
:107F500020302B498881084681898089401C284A25
:107F6000908120A809183E38407808701046818911
:107F70008089401C908120A8091810A8807808707A
:107F8000104681898089401C908120A8091800E052
:107F90002FE010A800780870114689892F3120AA97
:107FA00088183A2211A9FCF7EBF81548808920308F
:107FB0001349888108E05521114882898089401C35
:107FC0000F4B988120A881540D4800680C494989BD
:107FD00040180B490860601C84B20948C088A04260
:107FE00000DD60E70648818920AA3046FCF750FB97
:107FF00003E031460348FCF729F97FB005B070BDB6
:108000005416002001C5000070B5AAB0064698219C
:1080100001A8FCF7DCF83C4800683C2802D03F2867
:1080200069D116E03848008A0C3037498881002031
:10803000C8750C22354927A8FCF7A2F80C2227A9FD
:1080400027A8FEF7A8FA27AA0C213046FCF720FB48
:1080500056E000202C49C8752C483F30C0780028D5
:108060002AD0FDF747FB0446012C11D1284800789F
:10807000002804D12146274801F0F6F93AE02448C7
:108080000078012836D12146234801F0EDF931E08E
:1080900001A8FDF767FB0546002D03D13046FCF72C
:1080A00075FB27E0012D25D101A9304601F022F909
:1080B00001201A4988711DE01348808A062819D1C9
:1080C000FDF718FB0446002C11D011480078002859
:1080D00004D121460F4801F0C7F90BE00C480078A5
:1080E000012807D121460C4801F0BEF902E03046D4
:1080F000FCF74CFB04E031460948FCF7A7F800BF49
:1081000000BF2AB070BD000054160020B10100204D
:108110001D010020120800202E0F00204A1600200A
:1081200001C5000010B50446FF20207001206070DA
:10813000FF21392001553A200155204600F012F860
:108140003B20005D002806D0012806D0052803D07A
:10815000062804D102E003E002E001E000E000BFF5
:1081600000BF10BD70B504463B20005D162800DD41
:1081700070BDFF217A200155E08F3949884208D12E
:108180003848FFF73BF906223649A01CFBF7F8FFF9
:108190000DE03448FEF726F803223249A01CFBF715
:1081A000EFFF03222F49091D601DFBF7E9FF39206E
:1081B000005DF02813D10C222B4920460830FEF731
:1081C000EAF9052228490C3120461430FEF7E3F97C
:1081D00020222549113120461930FEF7DCF92349C8
:1081E0008888C117C90E091849114901411A21D1BE
:1081F0001E4880881E49884201D11E4D05E01B485B
:1082000080882030C0011B494518012109032846F8
:10821000FDF7CAFA00280DD12846FDF72FFB1349B8
:108220004988084620307F21C901FBF795FF88B2B5
:108230000E4948800D48818822460120FDF7E4FC64
:108240000A488088401C80B20849888008491F314C
:10825000884202DD00200549888000BF88E70000D1
:1082600001690000CC000020B1010020961600201A
:10827000603F00000020800010B5FF2220211B4835
:10828000FBF79EFFFF22202118482030FBF798FFC4
:10829000FF22102115484030FBF792FFFF221021EA
:1082A00012485030FBF78CFFFF2220210F4860302E
:1082B000FBF786FF01210D488030017003210D304E
:1082C000FBF785FF012109488D30C17082210171C2
:1082D000FF222021401DFBF773FF044A00210846BE
:1082E000FDF792FCFCF7E6FC10BD00003001002019
:1082F00070B50546002407E0601C84B27D200001B3
:10830000844201DD002070BD02210E4800F09CF87F
:108310000028F1D029460B4800F0DCF8002407E0E3
:10832000601C84B27D200001844201DD0020EAE768
:108330000121044800F088F80028F1D0014800F03D
:10834000B9F8E0E700300140002904D0028840235A
:108350001A43028003E00288014B1A4002807047F2
:10836000BFFF000000B587B001218804FEF7E4FCE0
:108370000320059001216846017603214176002102
:108380008176C17605A92E48FDF732FE02212C48E0
:10839000FDF7A4FE01212A48FDF79EFE01214804B5
:1083A000FEF7CAFCE0200590022168460176032111
:1083B00041760021C17605A90920C006FDF718FE07
:1083C000E0210920C006FDF789FE002205210920D1
:1083D000C006FDF755FE002206210920C006FDF764
:1083E0004FFE002207210920C006FDF749FE0121AA
:1083F0000803FEF7C1FC01210903124800F060F8F0
:10840000002168460180FF210531418007210902D2
:1084100081800021C180018101214902418108211F
:1084200081810021C181072101826946054800F050
:1084300015F801210348FFF787FF07B000BD0000D2
:1084400000040048003001400246002013890B4020
:10845000002B01D0012000E00020704710B5002261
:108460000288C1239B011A400B88CC892343CC8806
:1084700023430C8923434C8923438C8923431A4388
:1084800002808288084B1A408B881A4382800B8AAC
:1084900003820288054B1A404B881A430280838B63
:1084A000034C2340838310BDFFF00000FBFF00005E
:1084B000FFF70000014600220A460C321078704790
:1084C0008288034B1A40828082880A4382807047E8
:1084D000FFEF0000002202460C32117070470000CE
:1084E00030B500228B071C0F0F23A3401A460B4BFD
:1084F0008C10A4001B599343084C8D10AD006351A0
:1085000023468C10A4001B598C07250F0446AC4051
:108510002343024C8D10AD00635130BD0800014073
:1085200001460020044A10688008800002460A4381
:108530001046014A1060704700000140F3B5CBB00F
:10854000044600204A9000262790269022902190F1
:1085500020901F90FF22762101A8FBF731FE002713
:1085600029E001F09DFDE05DB92813D1781C205C65
:10857000CA280FD1B81C205CD5280BD1F81C205C70
:10858000CF2807D12798002802D10120269001E0AA
:108590004DB0F0BDE05D0A280BD1781C205C0D28A1
:1085A00007D1791C2798421CD2B24000279223AAF7
:1085B0001152781CC7B24C988742D2DB2798062804
:1085C00074DC2798032844DCFCA12046FBF70AFE54
:1085D00000281BD00522FC4905A80230FBF7D0FD7E
:1085E000052108A8C176F9496846C187F848FDF712
:1085F000F9FD0322F64901A8FBF7C2FD0322F44965
:10860000091D01A80330FBF7BBFD14E3F1A12046CF
:10861000FBF7E8FD0028F8D00522EB4905A8023059
:10862000FBF7AEFD052108A8C176E8492031684670
:10863000C187E748FDF7D6FD0322E54901A8FBF70E
:108640009FFD0322E249091D01A80330FBF798FDB5
:10865000F1E2E3A12046FBF7C5FD002802D0172078
:108660004A902FE0E1A12046FBF7BCFD002802D094
:108670002A204A9026E0DFA12046FBF7B3FD002820
:1086800002D01E204A901DE0DCA12046FBF7AAFD87
:10869000002802D018204A9014E0DAA12046FBF707
:1086A000A1FD002803D055204A900BE0C7E2D7A1D6
:1086B0002046FBF797FD002802D056204A9001E0A3
:1086C00000204A90052108A8C176D2496846C18792
:1086D00020A88089C01CC5B2A8E0605D3A281FD1DF
:1086E000681C205C20281BD1E81C205CBA282FD1F4
:1086F000281D205CC5282BD1A81C205C3038C0B2B6
:10870000229028460830205CB2280AD12846093039
:10871000205CE32805D1E81D205C3038C0B22190F0
:1087200082E028460930205CB2287DD128460A30F4
:10873000205CE32878D1E81D205C30380A214843CA
:1087400029460831615C30394018C0B221906BE095
:10875000281D205CBA2836D1681D205CC52832D17E
:10876000A81C205C30380A214843E91C615C401891
:10877000C0B2229028460930205CB2280BD128468E
:108780000A30205CE32806D128460830205C3038C7
:10879000C0B2219048E028460A30205CB22843D17C
:1087A00028460B30205CE3283ED128460830205C68
:1087B00030380A21484329460931615C3039401874
:1087C000C0B2219030E0281D205CB2281DD1681D68
:1087D000205CE32819D100202290A81C205C2D28C1
:1087E00007D1E81C205C30386421081AC0B22190FF
:1087F0001AE0A81C205C30380A214843E91C615C5F
:1088000030394018C0B221900EE0E81C205CB2283C
:108810000AD1281D205CE32806D100202290A81C44
:10882000205C3038C0B22190681CC5B220A8C08935
:10883000A84200DD51E720A88089001D205C2F2878
:1088400070D120A88089C01C205C303880B21F9075
:1088500020A88089401D205C3A280DDA20A8808954
:10886000801D205C3A2807D120A88089401D205C0B
:10887000303880B2209001E120A88089401D205C22
:108880003A281BDA20A88089801D205C3A2815DA56
:1088900020A88089C01D205C3A280FD120A9888992
:1088A000401D205C30380A21484320A98989891D50
:1088B000615C3039401880B22090DFE020A88089C8
:1088C000401D205C3A2829DA20A88089801D205C80
:1088D0003A2823DA20A88089C01D205C3A281DDAB6
:1088E00020A880890830205C3A2817D120A88089E8
:1088F000401D205C30386421414320A88089801DC0
:10890000205C30380A225043091820A88089C01DF5
:10891000205C3038081880B22090AFE00020209012
:10892000ACE0FFE720A88089401D205C2F2821D1E2
:1089300020A88089C01C205C30380A21414320A82F
:108940008089001D205C3038081880B21F9020A854
:108950008089801D205C3A280DDA20A88089C01DFE
:10896000205C3A2807D120A88089801D205C3038FF
:1089700080B2209082E020A88089801D205C3A2867
:108980004ADA20A88089C01D205C3A2844DA20A851
:1089900080890830205C3A283ED120A98889801D32
:1089A000205C30380A21484320A98989C91D615CAF
:1089B0003039401880B2209060E00000D6F7B5E76B
:1089C000B9CAD5CF00000000EC01002005C30000AB
:1089D000CC000020B1B8B5E7B9CAD5CF000000007F
:1089E000CAD6B6AFB1A8BEAF00000000B9E2B5E785
:1089F00000000000B8D0CEC200000000CFFBBBF0EA
:108A0000CBA80000B5A5CAE4C8EB0000CAE4B3F6E1
:108A1000000000000FE0000020A88089801D205C7D
:108A20003A2829DA20A88089C01D205C3A2823DA58
:108A300020A880890830205C3A281DDA20A8808987
:108A40000930205C3A2817D120A88089801D205C3D
:108A500030386421414320A88089C01D205C303813
:108A60000A225043091820A880890830205C303839
:108A7000081880B2209001E00020209020A8C08932
:108A8000C01C205CD7281CD120A8C089001D205CF8
:108A9000A22816D120A8C089C01CC6B200204990C7
:108AA00009E0A25D4998411CC9B2499106A9033168
:108AB0000A54701CC6B220A8008A401EB042F0DCE6
:108AC00021E020A8008AC01C205CD7281BD120A848
:108AD000008A001D205CA22815D120A8008AC01C95
:108AE000C6B20020499009E0A25D4998411CC9B274
:108AF000499106A903310A54701CC6B220A8408AC5
:108B0000401EB042F0DC2798C01E400023A9085C3C
:108B1000C01CC5B25FE0605DC4280FD1681C205C3A
:108B2000EA280BD1A81E205C30380A214843691E70
:108B3000615C30394018694648724AE0605DD4286B
:108B40000FD1681C205CC2280BD1A81E205C3038D5
:108B50000A214843691E615C303940186946087231
:108B600037E0605DC8280FD1681C205CD5280BD188
:108B7000A81E205C30380A214843691E615C3039E8
:108B800040186946C87124E0605DCA280FD1681C8E
:108B9000205CB1280BD1A81E205C30380A21484344
:108BA000691E615C303940186946887111E0605D6A
:108BB000B7280ED1681C205CD6280AD1A81E205CDC
:108BC00030380A214843691E615C303940186946D3
:108BD0004871681CC5B22798801E400023A9085A16
:108BE000A84298DC002069460871002607E001A928
:108BF000885DFDF751FB01A98855701CC6B2062E91
:108C0000F5DB012148A801701F98C1B248A8417046
:108C10002098C1B248A88170032248A905A8033052
:108C2000FDF765FB042205A903310846FDF7B3FCF7
:108C300069464A98887528A901A8FCF7D5FC00BFA9
:108C4000A6E40000F3B5CBB0044600204A9049905A
:108C5000279026902290219020901F90FF2276212D
:108C600001A8FBF7ADFA002731E001F019FAE05D49
:108C7000B1281BD1781C205CA82817D1B81C205C17
:108C8000BB2813D1F81C205CF0280FD1381D205CC4
:108C9000BE280BD1781D205CAF2807D1279800286B
:108CA00002D10120269001E04DB0F0BDE05D0A2820
:108CB0000BD1781C205C0D2807D1791C2798421C09
:108CC000D2B24000279223AA1152781CC7B24C9806
:108CD0008742CADB279806287BDCFCA12046FBF7ED
:108CE00081FA002806D0FF2001306946C887172086
:108CF0004A902BE0F8A12046FBF774FA002805D033
:108D0000F7486946C8872A204A901FE0F5A1204607
:108D1000FBF768FA002806D0F148401E6946C8876C
:108D20001E204A9012E0F1A12046FBF75BFA0028D2
:108D300006D0EB480D306946C88718204A9005E0F8
:108D4000E7480D306946C88700204A90002108A8EE
:108D5000C17620A88089C01CC5B2AAE0605D3A280F
:108D60001FD1681C205C2028FAD1E81C205CBA289E
:108D700030D1281D205CC5282CD1A81C205C30389F
:108D8000C0B2229028460830205CB2280AD128467A
:108D90000930205CE32805D1E81D205C3038C0B2E2
:108DA000219084E028460930205CB2287FD12846F3
:108DB0000A30205CE3287AD1E81D205C30380A2193
:108DC000484329460831615C30394018C0B22190CF
:108DD0006DE05EE2281D205CBA2837D1681D205C5A
:108DE000C52833D1A81C205C30380A214843E91C2F
:108DF000615C30394018C0B2229028460930205CAE
:108E0000B2280BD128460A30205CE32806D1284638
:108E10000830205C3038C0B2219048E028460A3043
:108E2000205CB22843D128460B30205CE3283ED199
:108E300028460830205C30380A2148432946093149
:108E4000615C30394018C0B2219030E0281D205CB0
:108E5000B2281DD1681D205CE32819D10020229082
:108E6000A81C205C2D2807D1E81C205C3038642128
:108E7000081AC0B221901AE0A81C205C30380A21E0
:108E80004843E91C615C30394018C0B221900EE0C3
:108E9000E81C205CB2280AD1281D205CE32806D1FA
:108EA00000202290A81C205C3038C0B22190681CA1
:108EB000C5B220A8C089A84200DD4FE720A880895C
:108EC000001D205C2F2870D120A88089C01C205C48
:108ED000303880B21F9020A88089401D205C3A283D
:108EE0000DDA20A88089801D205C3A2807D120A8AF
:108EF0008089401D205C303880B22090D2E020A8CC
:108F00008089401D205C3A281BDA20A88089801DBA
:108F1000205C3A2815DA20A88089C01D205C3A28F8
:108F20000FD120A88089401D205C30380A214143A0
:108F300020A88089801D205C3038081880B22090DD
:108F4000B0E020A88089401D205C3A2829DA20A8BA
:108F50008089801D205C3A2823DA20A88089C01DE2
:108F6000205C3A281DDA20A880890830205C3A2845
:108F700017D120A88089401D205C303864214143EE
:108F800020A88089801D205C30380A2250430918AF
:108F900020A88089C01D205C3038081880B220903D
:108FA00080E0002020907DE0FFE720A88089401D20
:108FB000205C2F2876D120A88089C01C205C303806
:108FC0000A21414320A88089001D205C3038081800
:108FD00080B21F9020A88089801D205C3A280DDA7D
:108FE00020A88089C01D205C3A2807D120A880894C
:108FF000801D205C303880B2209053E020A880890A
:10900000801D205C3A281BDA20A88089C01D205CC6
:109010003A2815DA20A880890830205C3A280FD138
:1090200020A98889801D205C30380A21484320A966
:109030008989C91D615C3039401880B2209031E0C7
:1090400020A88089801D205C3A2829DA20A8808900
:10905000C01D205C3A2823DA20A880890830205CD3
:109060003A281DDA20A880890930205C3A2817D1D7
:1090700020A88089801D205C30386421414320A8CD
:109080008089C01D205C30380A225043091820A86E
:1090900080890830205C3038081880B2209001E0C8
:1090A0000020209020A8C089C01C205CD72831D186
:1090B00020A8C089001D205CA2282BD120A8C0892F
:1090C000C01CC6B2002049901EE00000CAD6B6AF50
:1090D000B1A8BEAF00000000B9E2B5E70000000093
:1090E00002400000B8D0CEC200000000CFFBBBF0B1
:1090F000CBA80000A25D4998411CC9B2499106A9BC
:1091000003310A54701CC6B220A8008A401EB04227
:10911000F0DC21E020A8008AC01C205CD7281BD1ED
:1091200020A8008A001D205CA22815D120A8008A52
:10913000C01CC6B20020499009E0A25D4998411CBC
:10914000C9B2499106A903310A54701CC6B220A8BD
:10915000408A401EB042F0DC2798C01E400023A980
:10916000085CC01CC5B25FE0605DC4280FD1681CFC
:10917000205CEA280BD1A81E205C30380A21484325
:10918000691E615C30394018694648724AE0605D8A
:10919000D4280FD1681C205CC2280BD1A81E205CEB
:1091A00030380A214843691E615C303940186946ED
:1091B000087237E0605DC8280FD1681C205CD52894
:1091C0000BD1A81E205C30380A214843691E615C1F
:1091D000303940186946C87124E0605DCA280FD153
:1091E000681C205CB1280BD1A81E205C30380A21F5
:1091F0004843691E615C303940186946887111E046
:10920000605DB7280ED1681C205CD6280AD1A81E44
:10921000205C30380A214843691E615C30394018AF
:1092200069464871681CC5B22798801E400023A972
:10923000085AA84298DC002069460871002607E019
:1092400001A9885DFDF728F801A98855701CC6B2F0
:10925000062EF5DB012148A801701F98C1B248A86D
:1092600041702098C1B248A88170032248A905A87E
:109270000330FDF73CF8042205A903310846FDF749
:109280008AF969464A98887528A901A8FCF7ACF9BB
:1092900000E009E500BF07E530B59FB004460D4684
:1092A000FF227C216846FAF78BFF6846C58708A82D
:1092B000C47605220B4905A8FDF76DF90948443825
:1092C000027809A106A8013001F086FE202206A935
:1092D00001310846FDF75FF96846FEF723FF1FB02E
:1092E00030BD0000F4010020C4A3BFE9204C413A86
:1092F0002564000070B504460D467F20A07234211D
:10930000E172F62121730D48017861730C48C1891F
:10931000491E2046FF301530415CA1733821E173AE
:109320002E22691C20461030FAF72AFFE07A401CF2
:10933000A080204600F00AFE70BD0000B0010020B1
:10934000541600200CB500200190009031480068B0
:109350000121090408432F49086000BF2D48006817
:1093600001214904084000900198401C0190009898
:10937000002804D10521090201988842EED1254830
:109380000068012149040840002802D00120009013
:1093900001E0002000900098012839D111201E49D9
:1093A00008601C4840681B4948600846406848609F
:1093B000084640683F21090488431649486008462A
:1093C00040680921090408431249486008460068BA
:1093D0000121090608430F49086000BF0D480068D5
:1093E0000121490608400028F8D00A484068800852
:1093F0008000084948600846406802210843054942
:10940000486000BF034840680C2108400828F9D193
:109410000CBD00000010024000200240F0B587B0F3
:1094200004462078FBF700FA05466078FBF7FCF964
:109430000646A078FBF7F8F907462079FBF7F4F920
:1094400006906079FBF7F0F90590A079FBF7ECF94D
:1094500001230097019602950490069A0599FEF75C
:10946000DBF807B0F0BD000070B505460E460024DD
:109470000624012E5FD1E32174482818001D0155F0
:109480000D2272482818001D611C4254A01CC4B251
:109490006E496918091D08190C226D49FAF770FE0A
:1094A0006A4AAA18121D1119684AAA18121D101921
:1094B0000C22FDF770F820460C30C4B263496918DD
:1094C000091D0819052262490C31FAF759FE5F4A55
:1094D000AA18121D11195D4AAA18121D1019052289
:1094E000FDF759F8601DC4B258496918091D0819DB
:1094F000202257491131FAF743FE544AAA18121D87
:109500001119524AAA18121D10192022FDF743F80A
:1095100020462030C4B24D482818001D01194C487F
:10952000401E00780870601CC4B2601EC1B228469C
:1095300000F094F888E0022E2FD124214348281807
:10954000001D0155012241482818001D611C42548C
:10955000F4223E482818001DA11C42543B496918BA
:10956000091DE21C8818FF220521FAF729FE394857
:109570002818027935482918091D204608300A5450
:10958000632232482918091D204609300A54C4B202
:109590002146284600F062F856E0032E2FD1242100
:1095A0002A482818001D0155012228482818001DA6
:1095B000611C4254F42225482818001DA11C425465
:1095C00022496918091DE21C8818FF220521FAF7B3
:1095D000F7FD2048281802791C482918091D204643
:1095E00008300A547C2219482918091D20460930E0
:1095F0000A54C4B22146284600F030F824E0042E74
:109600000FD115488278811C10482818401DFAF7A0
:10961000B7FD0E48281844792146284600F01EF868
:1096200012E0052E10D1D02108482818001D015540
:10963000032206482818001D611C4254A01CC4B215
:109640002146284600F00AF870BD00000C04000016
:10965000B101002016050000AA160020F8B5044646
:109660000D461C48009006221B491C482018001D6E
:10967000FAF786FD19482018457118482018807996
:1096800040218843154961188871E81C1349611805
:109690004880681CC7B2002609E010482018001D49
:1096A000815D0098FBF7CAF80090701CC6B2BE42FC
:1096B000F3DB0098C1B209482018001DC155FF21F5
:1096C000090200980840021204482018001D791C65
:1096D0004254F8BDFFFF0000500300200C040000BE
:1096E00000BFBFF34F8F04480449C860BFF34F8FDA
:1096F00000BF00BFFEE700000400FA0500ED00E037
:1097000010B501210846FDF737FB1E4800681E49C9
:1097100008431C4908601D480068012108431B4993
:109720000860084640681A490840184948600846D9
:10973000006818490840154908600846006801217A
:109740008904884311490860084640683F2109049C
:1097500088430E4948600846C06A00090001C86293
:109760000846006BFF2154318843084908630846C6
:10977000406B40084000486300208860FFF7E2FD2E
:1097800010BD00000000014000060004001002406F
:109790000CB8FF08FFFFF6FE10B5FCF7CBFEFCF798
:1097A000E9FEFCF7DFFE10BD10B50121234800F0F3
:1097B00082F8002840D00121204800F059F801200B
:1097C0001F49087108460068401C08600846407937
:1097D000401C4871084640794007400F030001F0E3
:1097E0000FFC0805060D10111D27282923E0154838
:1097F000FCF736FF1448FCF733FF1CE0FCF740FF92
:1098000019E018E00E48C079401C0D49C87108469F
:10981000C0797C2801DD0020C8710CE00B48807AFB
:10982000002804D00948807A401E0849887202E066
:1098300001E000E000BF00BF10BD000000200040BC
:1098400020010020120800202E0F00200608002012
:109850000A884B881A438B881A43CB881A430B8992
:109860001A434B891A438B891A4344231A5270476F
:10987000CA43028270470000002904D002880123F5
:109880001A43028003E00288014B1A4002807047AD
:10989000FEFF0000002907D04422125A0123DB03F7
:1098A0001A4344231A5205E04422125A53045B0C13
:1098B00044221352704730B5024600200023002492
:1098C000158A0D402B4695890D402C46002B03D060
:1098D000002C01D0012000E0002030BD002A03D080
:1098E00083890B43838102E083898B4383817047A3
:1098F00070B5002400220023058C1C4E35400584E1
:10990000028C8388048B194D6F3D2C40B51E2C4072
:109910000D882C43751E2A408D892A434D882A4381
:10992000134DA84208D0134DA84205D0124DA842AD
:1099300002D0124DA84212D10C4DED1F2A40CD8904
:109940002A430A4DED1E2A408D882A43074DFF3DCC
:109950002B400B4D2B400D8A2B434D8A2B4383808C
:1099600004838D684563028470BD0000FEFF000023
:10997000002C0140004001400044014000480140EB
:10998000FFFD000070B5002400220023058C1E4E50
:1099900035400584028C8388048B1C4D2C401C4D63
:1099A0002C400D782D062D0C2C43174D103D2A40D0
:1099B0008D892D052D0C2A434D882D052D0C2A430C
:1099C000144DA84219D1104D703D2A40CD892D0566
:1099D0002D0C2A430C4D303D2A408D882D052D0C31
:1099E0002A430D4D2B400D4D2B400D8AAD042D0CFF
:1099F0002B434D8AAD042D0C2B43838004838D684B
:109A00008563028470BD0000EFFF0000FF8F00003F
:109A1000FFFC0000002C0140FFFB0000FFF70000EE
:109A200070B5002400220023058C1C4E35400584AF
:109A3000028C8388848B194D90352C40174DFD3551
:109A40002C400D882C43164D2A400D7B2D062D0CE5
:109A50002A438D782D062D0C2A43124DA84217D18A
:109A6000114D2A408D7B2D062D0C2A430F4D2A4087
:109A70000D792D062D0C2A430D4D2B400D4D2B40FD
:109A80000D8A2D052D0C2B434D8A2D052D0C2B43B6
:109A9000838084838D68C563028470BDFFFE0000EF
:109AA000FFFD0000002C0140FFF70000FFFB00005D
:109AB000FFEF0000FFDF000000220288154B9842F4
:109AC00006D001239B07984202D0134B984203D142
:109AD000124B1A404B881A43114B984203D0114B3A
